:100000000C948F000C94B7000C94B7000C94B700BC
:100010000C94B7000C94B7000C94B7000C94B70084
:100020000C94B7000C94B7000C94B7000C94B70074
:100030000C94B7000C94B7000C94B7000C94B70064
:100040000C94DA050C94B7000C944A060C94240620
:100050000C94B7000C94B7000C94B7000C94B70044
:100060000C94B7000C94B70008000000BE9224491D
:10007000123EABAAAA2ABECDCCCC4C3E00000080DA
:10008000BEABAAAAAA3E00000000BF000000803F4D
:100090000000000000084178D3BB4387D1133D190D
:1000A0000E3CC3BD4282AD2B3E68EC8276BED98F3A
:1000B000E1A93E4C80EFFFBE01C4FF7F3F0000007E
:1000C000000000000000240027002A0000000000BB
:1000D000250028002B000000000023002600290036
:1000E00004040404040404040202020202020303DE
:1000F00003030303010204081020408001020408E6
:100100001020010204081020000000080002010075
:100110000003040700000000000000007C0611241A
:100120001FBECFEFD8E0DEBFCDBF12E0A0E0B1E050
:10013000ECE5F4E202C005900D92A638B107D9F7BC
:1001400023E0A6E8B2E001C01D92A337B207E1F7B1
:1001500010E0CFE8D0E004C02197FE010E94650FB7
:10016000CE38D107C9F70E94C6060C942C120C9405
:100170000000833081F028F4813099F08230A9F0BA
:1001800008958730A9F08830C9F08430B1F48091A7
:1001900080008F7D03C0809180008F7780938000E6
:1001A000089584B58F7784BD089584B58F7DFBCF86
:1001B0008091B0008F778093B00008958091B00057
:1001C0008F7DF9CFCF93DF93282F30E0F901E85FDF
:1001D000FE4F8491F901EC50FF4FD491F901E052A8
:1001E000FF4FC491CC23A1F081110E94B900EC2FE4
:1001F000F0E0EE0FFF1FEA52FF4FA591B491EC9192
:10020000ED2381E090E009F480E0DF91CF91089543
:1002100080E090E0FACF1F93CF93DF93282F30E058
:10022000F901E85FFE4F8491F901EC50FF4FD49142
:10023000F901E052FF4FC491CC23A9F0162F811190
:100240000E94B900EC2FF0E0EE0FFF1FE453FF4FC8
:10025000A591B4918FB7F894EC91111108C0D09585
:10026000DE23DC938FBFDF91CF911F910895DE2BAA
:10027000F8CFCF93DF9390E0FC01EC50FF4F249137
:1002800080529F4FFC0184918823D1F090E0880F29
:10029000991FFC01EE53FF4FA591B491FC01E4536B
:1002A000FF4FC591D49161110EC09FB7F8948C9106
:1002B000E22FE0958E238C932881E223E8839FBF71
:1002C000DF91CF9108958FB7F894EC91E22BEC93E6
:1002D0008FBFF6CF8E50806480937C0080917A002F
:1002E000806480937A0080917A0086FDFCCF8091B3
:1002F00078009091790008953FB7F8948091BA0200
:100300009091BB02A091BC02B091BD0226B5A89B02
:1003100005C02F3F19F00196A11DB11D3FBFBA2F97
:10032000A92F982F8827BC01CD01620F711D811D57
:10033000911D42E0660F771F881F991F4A95D1F7DC
:1003400008958F929F92AF92BF92CF92DF92EF92D9
:10035000FF924B015C010E947C016B017C010E94B9
:100360007C016C197D098E099F09683E73408105E7
:100370009105A8F321E0821A9108A108B10888EE3E
:10038000C80E83E0D81EE11CF11C81149104A10465
:10039000B10429F7FF90EF90DF90CF90BF90AF901E
:1003A0009F908F900895AF92BF92CF92DF92EF927D
:1003B000FF920F931F93CF93DF936C017B018B010F
:1003C000040F151FEB015E01AE18BF08C017D1075F
:1003D00059F06991D601ED91FC910190F081E02DE9
:1003E000C6010995892B79F7C501DF91CF911F913E
:1003F0000F91FF90EF90DF90CF90BF90AF90089556
:10040000FC01538D448D252F30E0842F90E0821B1A
:10041000930B541710F0CF96089501970895FC019F
:10042000918D828D981761F0A28DAE0FBF2FB11DF7
:100430005D968C91928D9F5F9F73928F90E008954F
:100440008FEF9FEF0895FC01918D828D981731F009
:10045000828DE80FF11D858D90E008958FEF9FEF5D
:100460000895FC01918D228D892F90E0805C9F4F33
:10047000821B91098F73992708958EEB92E00E9459
:10048000310221E0892B09F420E0822F089580E0D9
:1004900090E0892B29F00E943D0281110C9400000C
:1004A0000895FC01A48DA80FB92FB11DA35ABF4F09
:1004B0002C91848D90E001968F739927848FA68963
:1004C000B7892C93A089B1898C91837080648C93B7
:1004D000938D848D981306C00288F389E02D808166
:1004E0008F7D80830895EF92FF920F931F93CF9398
:1004F000DF93EC0181E0888F9B8D8C8D98131AC05F
:10050000E889F989808185FF15C09FB7F894EE8945
:10051000FF896083E889F9898081837080648083A2
:100520009FBF81E090E0DF91CF911F910F91FF90ED
:10053000EF900895F62E0B8D10E00F5F1F4F0F7395
:100540001127E02E8C8D8E110CC00FB607FCFACF50
:10055000E889F989808185FFF5CFCE010E9451029B
:10056000F1CFEB8DEC0FFD2FF11DE35AFF4FF08221
:100570009FB7F8940B8FEA89FB8980818062CFCF87
:10058000CF93DF93EC01888D8823B9F0AA89BB89CA
:10059000E889F9898C9185FD03C0808186FD0DC0B5
:1005A0000FB607FCF7CF8C9185FFF2CF808185FFD6
:1005B000EDCFCE010E945102E9CFDF91CF91089596
:1005C000089590E080E00895CF93DF93EC0160E020
:1005D0008E810E940B0161E08E810E940B0160E020
:1005E0008E810E940B018BE891E00197F1F7DF917A
:1005F000CF910895CF92DF92EF92FF920F931F93C6
:10060000CF93DF936C017C0187E0E80EF11CD0E012
:10061000C0E0062F10E0B8010C2E02C0759567955A
:100620000A94E2F76170F70181917F010E940B014A
:100630002196C430D10579F7C601DF91CF911F9182
:100640000F91FF90EF90DF90CF900C94E402CF9247
:10065000DF92EF92FF920F931F93CF93DF93EC0102
:10066000F62E642F8C810E940B018D818F3F19F033
:1006700060E00E940B010F2D10E08F8584FF25C0E4
:100680006E0187E0C80ED11CF12CE12CB8010E2CB4
:1006900002C0759567950A94E2F76170F601819141
:1006A0006F010E940B01FFEFEF1AFF0A88E0E816C6
:1006B000F10461F7CE01DF91CF911F910F91FF906F
:1006C000EF90DF90CF900C94E402B80184E0759530
:1006D00067958A95E1F7CE010E94FA026F2DCE014F
:1006E000DF91CF911F910F91FF90EF90DF90CF900E
:1006F0000C94FA0240E0682F8BE593E00C942703FA
:1007000081E00E947A038BE39FE10197F1F708955E
:10071000CF93DF93823029F490916A03986090938D
:100720006A0380936E0310926F0380E480937003DA
:1007300080E18093710380E58093720361E0809192
:100740005F030E943901809160038F3F19F061E0DF
:100750000E94390161E0809161030E943901CBE57B
:10076000D3E09E012B55334080916A0384FD0BC07A
:1007700084E090E021962817390744F461E08E81E7
:100780000E943901EECF88E090E0F4CF8BE39DE04A
:100790000197F1F760E080915F030E940B0160E038
:1007A000809161030E940B01809160038F3F19F0DB
:1007B00060E00E940B0180916A0384FD34C063E015
:1007C0008BE593E00E94FA02CBE4D6E4CE010197D8
:1007D000F1F763E08BE593E00E94FA022197F1F7CD
:1007E00063E08BE593E00E94FA0283E592E00197D3
:1007F000F1F762E08BE593E00E94FA0280916A03D0
:1008000080620E947A0384E080936B038CE00E94F4
:100810007A030E94800382E080936C0386E0DF917C
:10082000CF910C947A0380620E947A038BE496E461
:100830000197F1F780916A0380620E947A0383E551
:1008400092E00197F1F780916A0380620E947A0337
:10085000D5CF90916E03891710F08FEF890FE82F95
:10086000F0E0E55AFC4F848980680C947A0341E0FB
:100870000E94270381E090E00895FB010190002091
:10088000E9F73197AF01461B570BDC01ED91FC9165
:100890000280F381E02D09948F929F92AF92BF92D4
:1008A000EF92FF920F931F93CF93DF93CDB7DEB7F5
:1008B000A1970FB6F894DEBF0FBECDBF7C01FA0141
:1008C000CB0119A2223008F42AE08E010F5D1F4FE0
:1008D000822E912CB12CA12CBF01A50194010E9464
:1008E000430FF901CA016A300CF5605DD8016E93BF
:1008F0008D01232B242B252B79F790E080E0109796
:1009000021F0BD01C7010E943D04A1960FB6F894E5
:10091000DEBF0FBECDBFDF91CF911F910F91FF9032
:10092000EF90BF90AF909F908F900895695CDECF5D
:10093000CF92DF92EF92FF92AB01BC0177FF1AC01A
:100940006A017C0141E06DE28BE593E00E942703A0
:1009500044275527BA014C195D096E097F092AE021
:100960008BE593E00E944C040196FF90EF90DF909E
:10097000CF9008952AE08BE593E0FF90EF90DF9011
:10098000CF900C944C048F929F92AF92BF92CF92D3
:10099000DF92EF92FF920F931F93CF93DF93EC01BF
:1009A0006A017B01AB019601CB01B6010E94F211F5
:1009B0006AE371E0811126C046015701E894B7F857
:1009C0002FEF3FEF4FE75FE7C501B4010E94F2113F
:1009D00081110CC02FEF3FEF4FE75FE7C501B40176
:1009E0000E94D80F6EE371E0181664F02FEF3FEF0E
:1009F0004FE75FE4C701B6010E94301118168CF46E
:100A000062E471E0CE01DF91CF911F910F91FF90D1
:100A1000EF90DF90CF90BF90AF909F908F900C940D
:100A20003D042FEF3FEF4FE75FECC701B6010E9497
:100A3000D80F87FDE5CF20E030E0A901C701B6015E
:100A40000E94D80F10E000E087FF0DC0E881F98117
:100A50000190F081E02D6DE2CE0109958C01F7FA4D
:100A6000F094F7F8F0942AE037ED43EA5BE3C7012E
:100A7000B6010E946C0F4B015C010E944F106B018C
:100A80007C010E947E109B01AC01C501B4010E9453
:100A90006B0F4B015C012AE0B701A601CE010E9459
:100AA0004C04080F191FE881F9810190F081E02DB5
:100AB0006EE2CE010995080F191F20E030E040E2F8
:100AC00051E4C501B4010E9485114B015C010E94F3
:100AD0004F106B01F12CE12C2AE0B701A601CE01E9
:100AE0000E944C04080F191FC701B6010E947E1016
:100AF0009B01AC01C501B4010E946B0F20E030E006
:100B000040E251E40E9485110E944F10AB0170E059
:100B100060E02AE0CE010E944C04800F911FDF911B
:100B2000CF911F910F91FF90EF90DF90CF90BF90EA
:100B3000AF909F908F9008950C943D0426E636E682
:100B400046E252E46091AB027091AC028091AD023A
:100B50009091AE020E94D80F87FF23C020E030E0C2
:100B600044E352E46091A3027091A4028091A50233
:100B70009091A6020E94D80F87FF13C080E00E94C8
:100B8000290466E471E08BE593E00E949C0561E036
:100B90008DE00E940B0181E08093AF021092A202CF
:100BA000089580E00E94290468E571E08BE593E0F8
:100BB0000C949C051F920F920FB60F9211242F9345
:100BC0003F938F939F93AF93BF938091B602909181
:100BD000B702A091B802B091B9023091B50223E0FA
:100BE000230F2D3758F50196A11DB11D2093B50295
:100BF0008093B6029093B702A093B802B093B90263
:100C00008091BA029091BB02A091BC02B091BD024A
:100C10000196A11DB11D8093BA029093BB02A093CF
:100C2000BC02B093BD02BF91AF919F918F913F9154
:100C30002F910F900FBE0F901F90189526E8230F4D
:100C40000296A11DB11DD2CF1F920F920FB60F9227
:100C500011242F933F934F935F936F937F938F93C1
:100C60009F93AF93BF93EF93FF938EEB92E00E941D
:100C70005102FF91EF91BF91AF919F918F917F9121
:100C80006F915F914F913F912F910F900FBE0F90F9
:100C90001F9018951F920F920FB60F9211242F9349
:100CA0008F939F93EF93FF93E091CE02F091CF0249
:100CB0008081E091D402F091D50282FD1BC0908129
:100CC0008091D7028F5F8F732091D802821741F0F5
:100CD000E091D702F0E0E254FD4F958F8093D70268
:100CE000FF91EF919F918F912F910F900FBE0F90D9
:100CF0001F9018958081F4CFEEEBF2E01382128200
:100D000088EE93E0A0E0B0E084839583A683B78368
:100D100080E291E09183808385EC90E095878487E1
:100D200084EC90E09787868780EC90E0918B808BB5
:100D300081EC90E0938B828B82EC90E0958B848B9E
:100D400086EC90E0978B868B118E128E138E148E0C
:100D5000EBE5F3E01382128282E391E091838083DA
:100D60008CE084838FEF85838BE0868385E08783A7
:100D700084E0808783E0818782E0828713861486FF
:100D800015861686178681E00C948803CF93DF932F
:100D9000CDB7DEB760970FB6F894DEBF0FBECDBFFC
:100DA000789484B5826084BD84B5816084BD85B546
:100DB000826085BD85B5816085BD80916E00816052
:100DC00080936E00109281008091810082608093F8
:100DD00081008091810081608093810080918000FA
:100DE0008160809380008091B10084608093B10025
:100DF0008091B00081608093B00080917A0084601F
:100E000080937A0080917A00826080937A0080914A
:100E10007A00816080937A0080917A008068809364
:100E20007A001092C10082E00E9488030E94800331
:100E300068E671E08BE593E00E949C0560E08EE03F
:100E40000E94390160E08FE00E94390160E081E199
:100E50000E94390160E080E10E94390160E082E196
:100E60000E94390160E083E10E94390161E08DE078
:100E70000E94390161E086E00E94390160E08AE069
:100E80000E94390160E089E00E94390161E088E058
:100E90000E94390161E087E00E94390160E08DE045
:100EA0000E940B0160E086E00E940B0160E088E098
:100EB0000E940B0160E087E00E940B01E091CE02EE
:100EC000F091CF0282E08083E091CA02F091CB02E0
:100ED0001082E091CC02F091CD028FEC80831092D1
:100EE000D602E091D202F091D30286E08083E091B5
:100EF000D002F091D102808180618083E091D002A4
:100F0000F091D102808188608083E091D002F091DD
:100F1000D102808180688083E091D002F091D1027B
:100F200080818F7D80837E012DE0E20EF11C3324D1
:100F300033948FB7F8942091B6023091B702409164
:100F4000B8025091B9022D873E874F87588B8FBFCB
:100F50008AE00E94E2004C019093B4028093B302B5
:100F600089E00E94E2009093B2028093B102AE0148
:100F70004F5F5F4F6A015A018A0181E10E946A0155
:100F8000D5018D939D935D0162E070E080E090E07B
:100F90000E94A101EA14FB0481F7412C512C32017B
:100FA000F601619171916F01072E000C880B990B6E
:100FB0000E9480109B01AC01C301B2010E946C0F22
:100FC0002B013C01AC14BD0459F720E030E040ECAB
:100FD00050E40E94DD0F20E030EC4FE754E40E9423
:100FE000DD0F20E030E040EA50E40E9485112B0143
:100FF0003C012DEC3CEC4CE45DE30E94D80F18164C
:101000000CF46FC31092AB021092AC021092AD02BE
:101010001092AE02580168018EE00E946A01D6016A
:101020008D939D936D0162E070E080E090E00E94FE
:10103000A101EC14FD0481F7412C512C3201F50182
:10104000619171915F01072E000C880B990B0E9432
:1010500080109B01AC01C301B2010E946C0F2B01F7
:101060003C01CA14DB0459F720E030E040EC50E4C6
:101070000E94DD0F20E030EC4FE754E40E94DD0FCA
:1010800020E030E040EA50E40E9485112B013C0151
:1010900027E73EEB4FE250E40E94D80F18160CF4FD
:1010A00035C31092A7021092A8021092A9021092C2
:1010B000AA025801680182E10E946A01D6018D935B
:1010C0009D936D0162E070E080E090E00E94A101DC
:1010D000EC14FD0481F7412C512C3201F501619192
:1010E00071915F01072E000C880B990B0E948010F4
:1010F0009B01AC01C301B2010E946C0F2B013C01AA
:10110000CA14DB0459F720E030E040EC50E40E94C0
:10111000DD0F9B01AC0160E070EC8FE794E40E946E
:10112000DD0F20E030E040E85FE30E946B0F9B01A1
:10113000AC0160E078EE89E196E40E94DD0F20E0EA
:1011400030E44CE156E40E94DD0F0E943D1120E0A6
:1011500030EB46E555E40E94DD0F2FE03FEC4BE518
:101160005BE30E946C0F9B01AC0160E070E080E8E3
:101170009FE30E94DD0F23E333E948E853E40E9434
:101180006B0F6093A3027093A4028093A5029093C7
:10119000A6025801680180E10E946A01D6018D9380
:1011A0009D936D0162E070E080E090E00E94A101FB
:1011B000EC14FD0481F7412C512C3201F5016191B1
:1011C00071915F01072E000C880B990B0E94801013
:1011D0009B01AC01C301B2010E946C0F2B013C01C9
:1011E000CA14DB0459F720E030E040EC50E40E94E0
:1011F000DD0F20E030EC4FE754E40E94DD0F20E0EB
:1012000030E040EA50E40E9485112B013C012DECB6
:101210003CEC4CE45DE30E94D80F18160CF48DC230
:1012200010929B0210929C0210929D0210929E02BC
:10123000580168018FE00E946A01D6018D939D9349
:101240006D0162E070E080E090E00E94A101EC148A
:10125000FD0481F7412C512C3201F501619171910E
:101260005F01072E000C880B990B0E9480109B01D8
:10127000AC01C301B2010E946C0F2B013C01CA14E6
:10128000DB0459F720E030E040EC50E40E94DD0F31
:1012900020E030EC4FE754E40E94DD0F20E030E026
:1012A00040EA50E40E9485112B013C0127E73EEB08
:1012B0004FE250E40E94D80F18160CF453C210925B
:1012C0009702109298021092990210929A02680165
:1012D00083E10E946A01D8018D939D938D0162E0A4
:1012E00070E080E090E00E94A101E016F10681F735
:1012F000412C512C3201F601619171916F01072E41
:10130000000C880B990B0E9480109B01AC01C3015B
:10131000B2010E946C0F2B013C010C151D0559F701
:1013200020E030E040EC50E40E94DD0F9B01AC0176
:1013300060E070EC8FE794E40E94DD0F20E030E085
:1013400040E85FE30E946B0F9B01AC0160E078EE28
:1013500089E196E40E94DD0F20E030E44CE156E4A0
:101360000E94DD0F0E943D1120E030EB46E555E480
:101370000E94DD0F2FE03FEC4BE55BE30E946C0F1A
:101380009B01AC0160E070E080E89FE30E94DD0F0C
:1013900023E333E948E853E40E946B0F6093930220
:1013A0007093940280939502909396028928A1F4F9
:1013B00080911A0190911B01019771F41091B00274
:1013C00062E370E080E090E00E94A1011111E1C1B0
:1013D0003092B0020E949E058091B002882309F4E9
:1013E000F4C08091AF02882309F446C026E636E6B1
:1013F00046E252E46091AB027091AC028091AD0282
:101400009091AE020E94301187FD36C02CEE31E57E
:1014100048EB5DE36091A7027091A8028091A90258
:101420009091AA020E94D80F181634F120E030E003
:1014300044E052E46091A3027091A4028091A5025D
:101440009091A6020E94D80F18160CF4C4C180E037
:101450000E94290469E871E08BE593E00E949C05F5
:1014600060E08DE00E940B0161E088E00E940B01CA
:101470001092AF023092A2028091A202882359F109
:1014800020E030E040EA51E46091AB027091AC02A0
:101490008091AD029091AE020E94D80F1816DCF038
:1014A00020E030E044E352E46091A3027091A40292
:1014B0008091A5029091A6020E94D80F87FF95C146
:1014C0000E949E058091A0029091A10201969093A6
:1014D000A1028093A00280919F02882309F446C054
:1014E00026E636E646E252E460919B0270919C0249
:1014F00080919D0290919E020E94301187FD36C01E
:101500002CEE31E548EB5DE3609197027091980213
:101510008091990290919A020E94D80F181634F186
:1015200020E030E044E052E4609193027091940234
:1015300080919502909196020E94D80F18160CF493
:101540005EC180E00E94290469E871E08BE593E0C8
:101550000E949C0560E086E00E940B0161E087E04C
:101560000E940B0110929F0230929202809192028F
:10157000882359F120E030E040EA51E460919B0279
:1015800070919C0280919D0290919E020E94D80FC2
:101590001816DCF020E030E044E352E4609193025E
:1015A0007091940280919502909196020E94D80FBA
:1015B00087FF2FC10E949E05809190029091910219
:1015C000019690939102809390028091B102909144
:1015D000B202892B09F041C0809118019091190144
:1015E0000197D9F562E370E080E090E00E94A101EC
:1015F00080918E0290918F02089724F010928F02B2
:1016000010928E0280918E0290918F02009709F0C5
:101610000AC181E00E94290468EB71E08BE593E048
:101620000E949C054091AB025091AC026091AD02CA
:101630007091AE028BE593E00E94C30460EC71E010
:101640008BE593E00E949C0580918E0290918F0221
:10165000019690938F0280938E022FB7F894809119
:10166000B6029091B702A091B802B091B9022FBF13
:1016700040918A0250918B0260918C0270918D0290
:10168000841B950BA60BB70B88329340A105B105BF
:1016900008F4A7C12FB7F8948091B6029091B702D1
:1016A000A091B802B091B9022FBF80938A029093A3
:1016B0008B02A0938C02B0938D02E0918E02F09188
:1016C0008F02E830F10508F08CC1E759F44F0C9413
:1016D000650FB20CD60D170E580E990EDA0E1B0FB1
:1016E000350FA3019201C301B2010E946C0F20E0EB
:1016F00030E040E251E40E9485116093AB027093A8
:10170000AC028093AD029093AE0284CC27E73EEB0F
:101710004FE250E4C301B2010E946B0F2DEC3CEC90
:101720004CEC5DE30E94DD0F6093A7027093A8026A
:101730008093A9029093AA02BCCCA3019201C30199
:10174000B2010E946C0F20E030E040E251E40E94C0
:10175000851160939B0270939C0280939D029093ED
:101760009E0266CD27E73EEB4FE250E4C301B20193
:101770000E946B0F2DEC3CEC4CEC5DE30E94DD0F06
:1017800060939702709398028093990290939A02C3
:101790009ECD0E94800380E00E94290469E771E0E9
:1017A0008BE593E00E949C0560E088E00E940B01BD
:1017B00060E087E00E940B0160E08DE00E940B0179
:1017C00060E086E00E940B011092AF021092A2022C
:1017D0001092B00201CE80E00E94290469E971E014
:1017E0008BE593E00E949C0547CE80E00E9429048F
:1017F00069E971E08BE593E00E949C056CCE80E086
:101800000E94290468EA71E08BE593E00E949C0540
:10181000ADCE80E00E94290468EA71E08BE593E098
:101820000E949C05D2CE81309105C1F481E00E94D6
:10183000290467EC71E08BE593E00E949C054091E0
:10184000A7025091A8026091A9027091AA028BE5AB
:1018500093E00E94C3046FEC71E0F2CE82309105F8
:10186000C1F481E00E94290465ED71E08BE593E00D
:101870000E949C054091A3025091A4026091A50290
:101880007091A6028BE593E00E94C3046DED71E0B8
:10189000D7CE8330910591F481E00E94290464EE53
:1018A00071E08BE593E00E949C0540919B02509172
:1018B0009C0260919D0270919E02BCCE8430910585
:1018C00091F481E00E9429046CEE71E08BE593E0D5
:1018D0000E949C0540919702509198026091990254
:1018E00070919A02B4CF8530910591F481E00E9405
:1018F000290464EF71E08BE593E00E949C05409120
:101900009302509194026091950270919602BACF21
:1019100086309105B1F481E00E9429046CEF71E0FA
:101920008BE593E00E949C056091A0027091A1025A
:10193000072E000C880B990B0E94980469E072E056
:101940007FCE079709F080CE81E00E94290460E1F4
:1019500072E08BE593E00E949C056091900270918B
:101960009102E6CF209114013091150140911601AA
:10197000509117016091AB027091AC028091AD0261
:101980009091AE020E94D80F882359F181E00E9405
:10199000290468EB71E08BE593E00E949C0540917F
:1019A000AB025091AC026091AD027091AE028BE53A
:1019B00093E00E94C30460EC71E08BE593E00E9429
:1019C0009C058091AB029091AC02A091AD02B091C8
:1019D000AE028093140190931501A0931601B09369
:1019E00017018091B1029091B202909319018093F6
:1019F00018018091B3029091B40290931B018093DF
:101A00001A018EEB92E00E943102181619060CF0B2
:101A1000C0C08091860290918702A0918802B09107
:101A200089022D853E854F855889281B390B4A0B25
:101A30005B0BDA01C901883E9340A105B10508F4AA
:101A40009CC08D859E85AF85B889809386029093D2
:101A50008702A0938802B09389026BE272E08EEB5A
:101A600092E00E949C054091AB025091AC026091C3
:101A7000AD027091AE028EEB92E00E94C30467E368
:101A800072E08EEB92E00E949C0569E372E08EEBBF
:101A900092E00E949C0540919B0250919C026091B3
:101AA0009D0270919E028EEB92E00E94C30467E358
:101AB00072E08EEB92E00E949C0565E472E08EEB92
:101AC00092E00E949C054091A7025091A80260916B
:101AD000A9027091AA028EEB92E00E94C30467E310
:101AE00072E08EEB92E00E949C0564E572E08EEB62
:101AF00092E00E949C05409197025091980260915B
:101B0000990270919A028EEB92E00E94C30467E3FF
:101B100072E08EEB92E00E949C0563E672E08EEB31
:101B200092E00E949C054091A3025091A402609112
:101B3000A5027091A6028EEB92E00E94C30467E3B7
:101B400072E08EEB92E00E949C0563E772E08EEB00
:101B500092E00E949C054091930250919402609102
:101B60009502709196028EEB92E00E94C30467E3A7
:101B700072E08EEB92E00E949C0565E872E08EEBCD
:101B800092E00E943D0463E872E08EEB92E00E94D6
:101B90003D04A0E0B0E0AB2B09F4CBC90E943D02AC
:101BA000882309F4C6C90E940000C3C9209110010E
:101BB0003091110140911201509113016091A702DF
:101BC0007091A8028091A9029091AA020E94D80F58
:101BD000882309F406CF81E00E94290467EC71E0B4
:101BE0008BE593E00E949C054091A7025091A802CA
:101BF0006091A9027091AA028BE593E00E94C30450
:101C00006FEC71E08BE593E00E949C058091A70248
:101C10009091A802A091A902B091AA02809310010C
:101C200090931101A0931201B0931301DACE209189
:101C30000C0130910D0140910E0150910F01609106
:101C4000A3027091A4028091A5029091A6020E9425
:101C5000D80F882309F4C5CE81E00E9429046DE1E4
:101C600072E08BE593E00E949C054091A3025091A5
:101C7000A4026091A5027091A6028BE593E00E94F8
:101C8000C3046DED71E08BE593E00E949C058091AB
:101C9000A3029091A402A091A502B091A602809304
:101CA0000C0190930D01A0930E01B0930F0199CEFA
:101CB000209108013091090140910A0150910B01D6
:101CC00060919B0270919C0280919D0290919E0276
:101CD0000E94D80F882309F484CE81E00E94290451
:101CE00064EE71E08BE593E00E949C0540919B02BD
:101CF00050919C0260919D0270919E028BE593E051
:101D00000E94C30460EC71E08BE593E00E949C05A7
:101D100080919B0290919C02A0919D02B0919E02A5
:101D20008093080190930901A0930A01B0930B01DD
:101D300058CE209104013091050140910601509147
:101D40000701609197027091980280919902909199
:101D50009A020E94D80F882309F443CE81E00E94A2
:101D600029046CEE71E08BE593E00E949C054091A4
:101D70009702509198026091990270919A028BE5B6
:101D800093E00E94C3046FEC71E08BE593E00E9446
:101D90009C058091970290919802A0919902B09130
:101DA0009A028093040190930501A0930601B093D9
:101DB000070117CE209100013091010140910201ED
:101DC0005091030160919302709194028091950269
:101DD000909196020E94D80F882309F402CE81E0E8
:101DE0000E94290464E272E08BE593E00E949C0566
:101DF00040919302509194026091950270919602E5
:101E00008BE593E00E94C3046DED71E08BE593E0F8
:101E10000E949C058091930290919402A09195025A
:101E2000B09196028093000190930101A09302016A
:101E3000B0930301D6CD81E00E9429046CEF71E0DC
:101E40008BE593E00E949C056091A0027091A10235
:101E5000072E000C880B990B0E94980469E072E031
:101E60008BE593E00E949C05BCCD81E00E94290493
:101E700060E172E08BE593E00E949C056091900226
:101E800070919102E5CFA1E21A2EAA1BBB1BFD01A6
:101E90000DC0AA1FBB1FEE1FFF1FA217B307E40749
:101EA000F50720F0A21BB30BE40BF50B661F771FA1
:101EB000881F991F1A9469F7609570958095909581
:101EC0009B01AC01BD01CF010895EE0FFF1F0590EE
:101ED000F491E02D09945058BB27AA270E94830F44
:101EE0000C94F6100E94E81038F00E94EF1020F0D9
:101EF00039F49F3F19F426F40C94E5100EF4E095A4
:101F0000E7FB0C94DF10E92F0E94071158F3BA1772
:101F1000620773078407950720F079F4A6F50C94FF
:101F200029110EF4E0950B2EBA2FA02D0B01B9014B
:101F300090010C01CA01A0011124FF27591B99F03F
:101F4000593F50F4503E68F11A16F040A22F232F4B
:101F5000342F4427585FF3CF469537952795A7959B
:101F6000F0405395C9F77EF41F16BA0B620B730B42
:101F7000840BBAF09150A1F0FF0FBB1F661F771FB3
:101F8000881FC2F70EC0BA0F621F731F841F48F468
:101F9000879577956795B795F7959E3F08F0B0CFF1
:101FA0009395880F08F09927EE0F979587950895D8
:101FB0000E94BB1008F481E008950E94F10F0C9478
:101FC000F6100E94EF1058F00E94E81040F029F43B
:101FD0005F3F29F00C94DF1051110C942A110C94DE
:101FE000E5100E94071168F39923B1F3552391F38B
:101FF000951B550BBB27AA2762177307840738F078
:102000009F5F5F4F220F331F441FAA1FA9F335D0D4
:102010000E2E3AF0E0E832D091505040E695001C88
:10202000CAF72BD0FE2F29D0660F771F881FBB1F42
:10203000261737074807AB07B0E809F0BB0B802D20
:10204000BF01FF2793585F4F3AF09E3F510578F04C
:102050000C94DF100C942A115F3FE4F3983ED4F304
:10206000869577956795B795F7959F5FC9F7880F20
:10207000911D9695879597F90895E1E0660F771F72
:10208000881FBB1F621773078407BA0720F0621B03
:10209000730B840BBA0BEE1F88F7E09508950E942E
:1020A0000F1188F09F5798F0B92F9927B751B0F0CA
:1020B000E1F0660F771F881F991F1AF0BA95C9F7CC
:1020C00014C0B13091F00E942911B1E008950C9430
:1020D0002911672F782F8827B85F39F0B93FCCF3E3
:1020E000869577956795B395D9F73EF49095809549
:1020F000709561957F4F8F4F9F4F0895E89409C069
:1021000097FB3EF490958095709561957F4F8F4F2A
:102110009F4F9923A9F0F92F96E9BB279395F69540
:10212000879577956795B795F111F8CFFAF4BB0FBE
:1021300011F460FF1BC06F5F7F4F8F4F9F4F16C022
:10214000882311F096E911C0772321F09EE8872FAC
:10215000762F05C0662371F096E8862F70E060E068
:102160002AF09A95660F771F881FDAF7880F9695E1
:10217000879597F90895990F0008550FAA0BE0E885
:10218000FEEF16161706E807F907C0F01216130639
:10219000E407F50798F0621B730B840B950B39F479
:1021A0000A2661F0232B242B252B21F408950A26DF
:1021B00009F4A140A6958FEF811D811D089597F91F
:1021C0009F6780E870E060E008959FEF80EC0895DD
:1021D00000240A9416161706180609060895002406
:1021E0000A9412161306140605060895092E039480
:1021F000000C11F4882352F0BB0F40F4BF2B11F4F4
:1022000060FF04C06F5F7F4F8F4F9F4F089557FD52
:102210009058440F551F59F05F3F71F04795880F54
:1022200097FB991F61F09F3F79F0879508951216EB
:1022300013061406551FF2CF4695F1DF08C0161697
:1022400017061806991FF1CF869571056105089448
:102250000895E894BB2766277727CB0197F908955F
:102260000E94BB1008F48FEF089516F00C94F7113C
:102270000C94E51068940C94DF100E940F11A8F3E1
:102280009923C1F3AEF3DF93CF931F930F93FF9284
:10229000C92FDD2788232AF02197660F771F881F13
:1022A000DAF720E030E040E85FEB9FE3883920F088
:1022B000803E38F021968F770E946C0FE8E6F0E0C0
:1022C00004C00E946C0FE5E9F0E00E9405128B014A
:1022D000BE01EC01FB2E6F5771097595771F880BB6
:1022E000990B0E94801028E132E741E35FE30E94EE
:1022F0009811AF2D9801AE01FF900F911F91CF91D2
:10230000DF910E94830F0C94F6100E9498110C9498
:10231000F6100E94E81038F00E94EF1020F095238C
:1023200011F00C94DF100C94E51011240C942A1178
:102330000E94071170F3959FC1F3950F50E0551F50
:10234000629FF001729FBB27F00DB11D639FAA270A
:10235000F00DB11DAA1F649F6627B00DA11D661F59
:10236000829F2227B00DA11D621F739FB00DA11D7A
:10237000621F839FA00D611D221F749F3327A00D34
:10238000611D231F849F600D211D822F762F6A2FD0
:1023900011249F5750409AF0F1F088234AF0EE0F35
:1023A000FF1FBB1F661F771F881F91505040A9F762
:1023B0009E3F510580F00C94DF100C942A115F3F72
:1023C000E4F3983ED4F3869577956795B795F7959E
:1023D000E7959F5FC1F7FE2B880F911D9695879516
:1023E00097F908950E94BB10880B990B08959F3FA1
:1023F00031F0915020F4879577956795B795880FC0
:10240000911D9695879597F90895DF93CF931F9324
:102410000F93FF92EF92DF927B018C01689406C0CC
:10242000DA2EEF010E949811FE01E894A591259102
:10243000359145915591A6F3EF010E94830FFE015E
:102440009701A801DA9469F7DF90EF90FF900F9160
:0C2450001F91CF91DF910895F894FFCF09
:10245C00003C1CC6003C1CC6003C1CC6003C1CC6F8
:10246C00003C1CC6003C1CC6010001000000000022
:10247C007302D3010002C00231020F0223020000DA
:10248C0000003704D301E102E0026E616E00696E58
:10249C0066006F7666002020204368617267696E63
:1024AC00672E2E2E202020004368617267696E67AC
:1024BC00204661696C65640020507265737320421C
:1024CC005431207374617274002053797374656D88
:1024DC002053746F707065640020446973436861A5
:1024EC007267696E672E2E2E0054656D7020746FA6
:1024FC006F2068696768210054656D703220746FB5
:10250C006F2068696768210020202056313A20002E
:10251C005620202020200020202041313A2000414C
:10252C00202020200020202054313A20002043205D
:10253C002020200020202056323A2000202020414C
:10254C00323A200020202054323A200020204379B7
:10255C00636C652050313A20002020202020200080
:10256C0020204379636C652050323A2000202020D3
:10257C0054313A0020202054323A00566F6C7420AB
:10258C0031202856293A002C00566F6C74203220CA
:10259C002856293A0043757272656E7420312028D2
:1025AC0041293A0043757272656E742032202841BD
:1025BC00293A004E6869657420646F2031202843E5
:1025CC00293A004E6869657420646F2032202843D4
:0625DC00293A000D0A007F
:00000001FF
